:020000040800F2
:10000000B8320120850200080504000879030008C1
:10001000010400086B030008270500080000000029
:10002000000000000000000000000000C501000802
:1000300077030008000000002102000809040008FE
:100040009F0200089F0200089F0200089F0200080C
:100050009F0200089F0200089F0200089F020008FC
:100060009F0200089F0200089F0200089F020008EC
:100070009F0200089F0200089F0200089F020008DC
:100080009F0200089F0200089F0200089F020008CC
:100090009F0200089F0200089F0200089F020008BC
:1000A0009F0200089F0200089F0200089F020008AC
:1000B0009F0200089F0200089F0200089F0200089C
:1000C0009F0200089F0200089F0200089F0200088C
:1000D0009F020008250500089F0200089F020008F3
:1000E0009F0200089F0200089F0200089F0200086C
:1000F0009F0200089F0200089F0200089F0200085C
:100100009F0200089F0200089F0200089F0200084B
:100110009F0200089F0200089F02000811050008C6
:100120009F0200089F0200086F0300089F0200085A
:100130009F0200089F0200089F0200089F0200081B
:100140009F0200089F0200089F0200089F0200080B
:100150009F0200089F0200089F0200089F020008FB
:100160009F0200089F0200089F0200089F020008EB
:100170009F0200089F0200089F0200080000000084
:100180009F0200089F0200089F0200089F020008CB
:100190009F0200089F0200089F0200080000000064
:1001A0009F0200089F0200089F020008DFF810D09D
:1001B00000F09EF80048004745080008AFF30080B3
:1001C000B83201202C4B19680868B0E8F04F80F372
:1001D0000988BFF36F8F4FF0000080F311887047DC
:1001E0000000000008480068006880F308884FF0AD
:1001F000000080F3148862B661B6BFF34F8FBFF37F
:100200006F8F00DF00BF00BF08ED00E0DFF80C00DB
:10021000016841F470010160704700BF88ED00E0A3
:10022000EFF30980BFF36F8F134B1A681EF0100FA6
:1002300008BF20ED108A20E9F04F106009B44FF09C
:10024000500080F31188BFF34F8FBFF36F8F01F021
:1002500087FC4FF0000080F3118809BC196808681A
:10026000B0E8F04F1EF0100F08BFB0EC108A80F31A
:100270000988BFF36F8F7047FC000020EFF3058003
:10028000704700000648804706480047FEE7FEE743
:10029000FEE7FEE7FEE7FEE7FEE7FEE7FEE7FEE736
:1002A0003D040008AD01000840EA01039B0703D0AC
:1002B00009E008C9121F08C0042AFAD203E011F8A5
:1002C000013B00F8013B521EF9D27047D2B201E067
:1002D00000F8012B491EFBD270470022F6E710B54B
:1002E00013460A4604461946FFF7F0FF204610BDA4
:1002F000064C074D06E0E06840F0010394E8070073
:1003000098471034AC42F6D3FFF754FFC8250008D5
:10031000E825000870B58C1810F8015B15F007038C
:1003200001D110F8013B2A1106D110F8012B03E08E
:1003300010F8016B01F8016B5B1EF9D12B0705D496
:100340000023521E0DD401F8013BFAE710F8013BDF
:10035000CB1A921C03E013F8015B01F8015B521EFB
:10036000F9D5A142D8D3002070BD00BFFEE710B57B
:1003700001F050F810BD704700BFFEE71BE03220CF
:1003800001F028FA00F062F9A8B90B4800780128BA
:1003900007D10A48006801F05BFB0020064908709D
:1003A00009E00548007830B90448006801F0A0FA77
:1003B000012001490870E2E70C0000200400002041
:1003C0000DE0012000F0A6F94FF47A7001F002FA76
:1003D000012000F07FF94FF47A7001F0FBF9F0E7AB
:1003E0000DE0022000F05AF94FF47A7001F0F2F9B2
:1003F000022000F037F94FF47A7001F0EBF9F0E7E2
:1004000000BFFEE77047000010B500BF502080F32A
:100410001188BFF34F8FBFF36F8F00BF01F07EFED7
:1004200018B14FF080500449086000BF002080F3ED
:10043000118800BF10BD000004ED00E008B5304891
:10044000006840F470002E4908602E48006840F0B3
:1004500001002C49086000BF2A48006800F0020033
:100460000028F9D000BF27480830006840F080001D
:100470002449083108600020009002E00098401CE8
:10048000009000985028F9D31E480830006840F0CA
:1004900090001C49083108600020009002E000989C
:1004A000401C009000985028F9D300BF1548083030
:1004B000006820F003001349083108601148006803
:1004C000114908400F4908600846006820F4802060
:1004D000086000200B490831086000BF0948083057
:1004E000006800200028F9D108480649091D086065
:1004F000002004490C31086001F016F808BD000026
:1005000088ED00E000380240FFFFF6FE10300024C6
:1005100010B500F019F80121014801F009F810BDEB
:1005200000140040704700BFFEE702E008C8121F39
:1005300008C1002AFAD170477047002001E001C1CC
:10054000121F002AFBD170470448006820B10348FD
:100550000068401E0149086070470000000000204C
:10056000816270478161704702461069084008B196
:10057000012070470020FCE7F0B504460D46164602
:100580002168E268002019E0012787401F409FB1E1
:100590004FEA400C032707FA0CF7B943470005FA66
:1005A00007F739434FEA400C032707FA0CF7BA4321
:1005B000470006FA07F73A43471CB8B21028E3D3BE
:1005C0002160E260F0BDF0B50C461546012C03D168
:1005D00046681E43466002E046689E434660826865
:1005E00000210DE001268E401E403EB14F00032643
:1005F000BE40B2434E0005FA06F632434E1CB1B27D
:100600001029EFD38260F0BD10B540F6084000F02D
:10061000EFFE40F6054000F0EBFE4FF400630022D1
:1006200011460848FFF7A8FF042300221146064898
:10063000FFF7A2FF0223002211460348FFF79CFFA9
:1006400010BD0000002002400014024010B504213B
:100650000348FFF789FF08B1012010BD0020FCE727
:100660000014024010B5044624B1012C07D0022C1E
:100670000FD109E020210848FFF774FF0AE040216C
:100680000548FFF76FFF05E080210348FFF76AFF89
:1006900000E000BF00BF10BD0020024010B50446BE
:1006A00024B1012C07D0022C0FD109E020210848E9
:1006B000FFF756FF0AE040210548FFF751FF05E02C
:1006C00080210348FFF74CFF00E000BF00BF10BDD2
:1006D0000020024010B5044624B1012C08D0022CA1
:1006E00012D10BE04FF480710948FFF73BFF0CE09B
:1006F0004FF400710648FFF735FF06E04FF48061C4
:100700000348FFF72FFF00E000BF00BF10BD00004F
:100710000014024010B5044624B1012C08D0022C6C
:1007200012D10BE04FF480710948FFF719FF0CE07C
:100730004FF400710648FFF713FF06E04FF48061A5
:100740000348FFF70DFF00E000BF00BF10BD000031
:100750000014024010B540F6084000F049FE40F693
:10076000054000F045FE2023012211463348FFF7E3
:1007700003FF4023002201213048FFF7FDFE8023C4
:10078000002201212D48FFF7F7FE2023022200213D
:100790002A48FFF718FF4023022200212748FFF7CD
:1007A00012FF8023022200212448FFF70CFF2021A2
:1007B0002248FFF7D7FE40212048FFF7D3FE8021D3
:1007C0001E48FFF7CFFE4FF48073002201211C4822
:1007D000FFF7D2FE4FF40073002201211848FFF703
:1007E000CBFE4FF48063002201211548FFF7C4FEC1
:1007F0004FF48073022200211148FFF7E4FE4FF40A
:100800000073022200210E48FFF7DDFE4FF48063E3
:10081000022200210A48FFF7D6FE4FF480710848F3
:10082000FFF7A0FE4FF400710548FFF79BFE4FF461
:1008300080610348FFF796FE10BD000000200240D3
:10084000001402401CB54FF4407000F03DF8FFF773
:1008500081FFFFF7D9FE1148022100238222CDE952
:1008600000100FA1104801F013FC104801210023D3
:100870008222CDE900100EA10F4801F009FC0020F2
:10088000032103468222CDE900100CA10D4801F09E
:10089000FFFB01F08FF800BFFEE70000040000201E
:1008A0004C45443100000000C1030008080000204E
:1008B0004C45443200000000E10300084B4559312B
:1008C000000000007D03000802490143024A116054
:1008D000704700000000FA050CED00E02DE9F04142
:1008E00005460E462648076826480068001D00F0A9
:1008F00022FE50B92348006890F82C10012088404F
:1009000021490968814320480160681CD8B9D6B1E3
:100910001E4948681B49096888601A498268096845
:10092000CA6018490968091D82685160154909683B
:10093000091D8160154A134909684A611146096811
:10094000491C11601AE07C190E4800684460BC42E2
:1009500007D20C480168091D0D48006800F00FFE21
:100960000CE008480168091D0A48006800F007FE0D
:1009700009480068844201D207480460BDE8F0815C
:1009800010010020FC000020140100207C02002047
:1009900004010020000100202C01002010B50446B5
:1009A00000F014FE31480068401C304908603048AF
:1009B000006840B92E4804600846006801280DD13F
:1009C00000F0C2F90AE02B48006838B928480068EE
:1009D000C06AE16A884201D8254804602648006858
:1009E000401C2549086008460068206494F82C10D3
:1009F0000120884021490968084320490860E16ACC
:100A000001EB81011E4A02EB81014868A060826807
:100A1000E260211D826851608160E16A01EB810121
:100A2000174A02EB81026261E16A01EB8101144A1B
:100A300052F82110491CE26A02EB8202104B43F883
:100A4000221000F0EDFD0B48006868B1084800680E
:100A5000C06AE16A884207D24FF0805009490860B5
:100A6000BFF34F8FBFF36F8F10BD00000C0100204C
:100A7000FC000020180100202801002014010020A3
:100A8000C801002004ED00E010B500F09FFD104803
:100A90000068D0B90F4800F062FD0F4800F05FFD1C
:100AA0000C480E4908600C480D49086000220C21D2
:100AB0000A2001F04FF9064908600846006820B195
:100AC00008A10348006800F02FFE00F0A9FD10BD4A
:100AD0004401002090020020A40200203C010020DC
:100AE00040010020546D72510000000010B516E066
:100AF00000F06CFD0C48C068C468201D00F01BFDB0
:100B00000A480068401E0949086009480068401EFC
:100B10000749086000F084FD204600F020F80448F2
:100B200000680028E4D110BD680200200C010020FC
:100B30000801002070B504460D46206C70B1216C90
:100B4000E0680144E160D4E90210884201D32168E1
:100B5000E1602846226CE168FFF7A6FB70BD10B586
:100B60000446206B00F07AFD204600F077FD10BDB2
:100B70000146084A126812680AB9012200E0002200
:100B80000A600A6822B9034A1268D268106800E055
:100B9000002070473C01002030B54FF496331748D1
:100BA00000F007042CB1C01D20F00700134C041BFB
:100BB0001B1B0246124C22600024114D6C60D018A1
:100BC000083820F007000F4C206000240D4D2D68E0
:100BD0006C600C4D2D682C601146441A4C60094C19
:100BE00024680C60084D4C682C60084D4C682C60E3
:100BF0004FF00044064D2C6030BD0000B8020020CC
:100C00005C010020640100206C01002068010020CC
:100C10007801002000BFFFF769FF0648006801283F
:100C2000F9D94FF0805004490860BFF34F8FBFF3EC
:100C30006F8FF0E7C801002004ED00E02DE9F041DE
:100C400006460D4617469846069C0DB9246000E0FE
:100C50002760E66325640121204601F0AFF884F89F
:100C60004C80BDE8F0812DE9F05F82460F4690464A
:100C70009B460A9E0C9C4FEA8801A522206BFFF739
:100C800025FBA8F10100216B01EB800929F0070980
:100C900009F0070008B9012000E0002050B900BFAA
:100CA000502080F31188BFF34F8FBFF36F8F00BFC9
:100CB00000BFFEE787B1002507E0795D04F134004D
:100CC0004155785D00B902E06D1C0A2DF5D300BFD7
:100CD00000213D20015502E0002084F83400052E5B
:100CE00001D2012000E0002050B900BF502080F365
:100CF0001188BFF34F8FBFF36F8F00BF00BFFEE7B8
:100D0000052E00D30426E662A6640020E064201DC0
:100D100000F032FC04F1180000F02EFC2461C6F152
:100D20000500A06164620020206584F854005A46E2
:100D30005146484600F046FB20600B9808B10B98DE
:100D40000460BDE8F09F000010B5002407E004EB4C
:100D500084010F4A02EB810000F001FC641C052CA9
:100D6000F5D30C4800F0FBFB0B4800F0F8FB0B48F8
:100D700000F0F5FB0A4800F0F2FB0A4800F0EFFB38
:100D800004480949086004480849086010BD00008B
:100D9000C80100202C020020400200205402002044
:100DA000680200207C0200200001002004010020D5
:100DB00010B50146164800E0006803688B42FBD37B
:100DC0000246436813448B4204D143684C68234471
:100DD000436001460A464B6813440468A34211D19C
:100DE0000C4C03682468A34208D04B68046864680C
:100DF00023444B6003681B680B6005E0054B1B68D0
:100E00000B6001E003680B60884200D0016010BDF8
:100E10005C010020640100202DE9F04104460D46EC
:100E200016461F464FF0000865602461B5420CD895
:100E3000F01BA169884202D34FF0010811E0211D87
:100E40000948006800F09BFB0BE0BE4204D2BD42A3
:100E500002D34FF0010804E0211D0448006800F0AF
:100E60008EFB4046BDE8F081400100203C0100209F
:100E700070B5054600F0AAFBA86B08B9012400E094
:100E8000002400F0CDFB204670BD000070B5054683
:100E90000E460E480068C068C468201D00F04BFB79
:100EA00094F8280000F0040028B132462946204674
:100EB00000F0D6F805E094F8280000F0FE0084F871
:100EC00028002046216A884770BD00003C010020B0
:100ED0007FB57FE0019800287CDB039C606908B93E
:100EE000012000E0002010B9201D00F024FB68461E
:100EF00000F0E2F8054601980A2869D2DFE800F020
:100F00006805072E365806082F3700BF00BF00BF00
:100F100094F8280040F0010084F828000298A269A3
:100F2000811803462A462046FFF776FFA8B194F8B9
:100F3000280000F0040038B10298A26981182A46FE
:100F4000204600F08DF805E094F8280000F0FE003F
:100F500084F828002046216A88473AE000BF94F8C8
:100F6000280000F0FE0084F8280032E000BF94F86A
:100F7000280040F0010084F828000298A061A069D0
:100F800008B1012000E0002050B900BF502080F3DC
:100F90001188BFF34F8FBFF36F8F00BF00BFFEE715
:100FA000A06941192B462A462046FFF735FF10E07D
:100FB00094F8280000F0020018B9204600F04EFB1B
:100FC00005E094F8280000F0FE0084F8280000E016
:100FD00000BF00BF002201A90348006800F05CFFC9
:100FE00000287FF477AF7FBD44010020F8B50546A7
:100FF0000C4600F0ADFD684600F05EF8064600982D
:1010000020BB44B9B54206D801F0F6F9314628466E
:10101000FFF73CFF1CE03CB10E480068006808B9CF
:10102000012000E000200446A91B22460A4800686F
:1010300000F0AAFB01F0E0F950B94FF080500749E9
:101040000860BFF34F8FBFF36F8F01E001F0D4F959
:10105000F8BD0000400100204401002004ED00E044
:1010600070B504460D46164604E0A06905442046C6
:10107000216A8847A06941192B4632462046FFF76E
:10108000CBFE0028F1D170BD09480068006808B99E
:10109000012000E0002020B14FF0FF30054908603A
:1010A00005E003480068C0680068024908607047AE
:1010B000000100202C01002070B5044601F028F842
:1010C000054607480068854204D200F00BF801206D
:1010D000206001E00020206001480560284670BDC6
:1010E0004C01002070B508E00D480068C068046835
:1010F0004FF0FF312046FFF7C9FE0948006800683D
:1011000008B9012000E000200028EDD0044805685F
:1011100004480068024908600248056070BD00008C
:101120003C010020400100200E480068401C08B926
:10113000012000E0002050B900BF502080F311884A
:10114000BFF34F8FBFF36F8F00BF00BFFEE700BF3D
:10115000502080F31188BFF34F8FBFF36F8F00BF14
:1011600000BFFEE75001002010B5024600201146E6
:1011700052B900BF502383F31188BFF34F8FBFF3E1
:101180006F8F00BF00BFFEE70B4C4B69A34201D13C
:10119000012300E0002373B1084C8B6AA34201D104
:1011A000012300E0002333B98B6A0BB9012300E06F
:1011B000002303B1012010BD7C0200205402002056
:1011C00008B500BF6846FFF7D3FC044620460099E7
:1011D000FFF70CFFFFF77CFEF4E770B5044600F064
:1011E000F5F994F9455010E0606A08B9012000E073
:1011F000002038B904F1240001F06EF818B100F0B5
:1012000023FB00E003E0681E45B2002DECDC00BFCC
:10121000FF2084F8450000F003FA00F0D7F994F9B4
:10122000445010E0206908B9012000E0002048B9CE
:1012300004F1100001F050F808B100F005FB681E41
:1012400045B200E001E0002DECDC00BFFF2084F897
:10125000440000F0E5F970BD2DE9F04104464FF07F
:10126000000800F075FC5148006808B9FFF794FCCD
:101270004F480068204000287ED13CB304F10800AC
:10128000A04223D9083404F0070000B304F007009B
:10129000C0F108002044A04216D904F00700C0F1B4
:1012A0000800044404F0070008B9012000E0002011
:1012B00068B900BF502080F31188BFF34F8FBFF390
:1012C0006F8F00BF00BFFEE7002400E00024002C69
:1012D00054D038480068844250D8374E30460568AC
:1012E00001E02E462D686868A04202D228680028D6
:1012F000F7D12E480068854240D0306800F10808D8
:10130000286830606868001B102819D92F1907F069
:10131000070008B9012000E0002050B900BF5020AC
:1013200080F31188BFF34F8FBFF36F8F00BF00BFF3
:10133000FEE76868001B78606C603846FFF738FD90
:101340001C4968680968081A1A4908600846006854
:101350001A490968884203D216480068174908608C
:1013600013496868096808436860002028601448C9
:101370000068401C124900E000E0086001F03CF801
:1013800008F0070008B9012000E0002050B900BFB4
:10139000502080F31188BFF34F8FBFF36F8F00BFD2
:1013A00000BFFEE74046BDE8F08100006401002078
:1013B00078010020680100205C0100206C01002001
:1013C00070010020001F4FF080730360001F21F0A8
:1013D00001030360001F054B036014380260001F07
:1013E0006FF00203036020387047000029110008E5
:1013F000074A02EB9011D1F8001800F01F030122F8
:101400009A401143024B03EB9012C2F80018704748
:101410000030024003484078034908700148807852
:10142000487070477C010020F80000200020002157
:101430003A4A126842F48032384B1A6000BF401CAE
:10144000364A126802F4003119B94FF6FF72904221
:10145000F5D1324A126802F400320AB900BFFEE741
:101460002E4A4032126842F080522C4B40331A60B0
:101470002B4A126842F44042294B1A60274A08322C
:101480001268264B08331A601A46126842F400426A
:101490001A601A46126842F4A0521A60214A1B1FB1
:1014A0001A601A1F126842F080721B1F1A6000BF78
:1014B0001A4A126802F00072002AF9D0184A12681B
:1014C00042F48032164B1A6000BF154A526802F48B
:1014D0008032002AF9D0124A126842F40032104BCE
:1014E0001A6000BF0E4A526802F40032002AF9D096
:1014F0000A4A0832126822F00302084B08331A60C5
:101500001A46126842F002021A6000BF034A08320B
:10151000126802F00802002AF8D070470038024032
:10152000007000401964400910B5FFF77FFF10BD3F
:10153000CA430261704701460A69D1E901309860E7
:10154000D1E9010358605068884201D18868506031
:10155000002008611068401E10601068704700F19C
:10156000080141604FF0FF31816000F10801C16066
:10157000016100210160704700210161704710B5D1
:1015800002460B685C1C0CB9106907E002F1080008
:1015900000E04068446824689C42FAD944684C6082
:1015A0004C68A160886041600A611468641C146022
:1015B00010BD42684A6093688B609368596091607F
:1015C000086103685B1C03607047000000BF502087
:1015D00080F31188BFF34F8FBFF36F8F00BF0E48AA
:1015E0000068401C0C49086008460068012812D1B8
:1015F0000A480068C0B208B9012000E0002050B9D4
:1016000000BF502080F31188BFF34F8FBFF36F8F5F
:1016100000BF00BFFEE770475001002004ED00E06E
:101620000D48006850B900BF502080F31188BFF307
:101630004F8FBFF36F8F00BF00BFFEE70648006803
:10164000401E054908600846006820B9002080F364
:10165000118800BF00BF70475001002070B50646DA
:101660003546002E44D0083D2C4622496068096862
:10167000084008B1012000E0002050B900BF502010
:1016800080F31188BFF34F8FBFF36F8F00BF00BF90
:10169000FEE7206808B9012000E0002050B900BF33
:1016A000502080F31188BFF34F8FBFF36F8F00BFBF
:1016B00000BFFEE70F49606809680840C0B12068B4
:1016C000B0B90C49606809688843606000F040FA6E
:1016D0000949606809680844074908602046FFF71F
:1016E00067FB06480068401C0449086000F084FE5F
:1016F00070BD000078010020680100207401002006
:1017000000204FF0E02108618861064800684FF42E
:101710007A71B0FBF1F0401E4FF0E02148610720E4
:10172000086170471000002030B502460B4652B9E0
:1017300000BF502484F31188BFF34F8FBFF36F8F26
:1017400000BF00BFFEE70021BBB1002012E00D4C3E
:1017500004EBC0046468944203D10A4C04EBC0015A
:101760000AE031B9074C54F8304014B9054C04EB89
:10177000C001401C0828EAD300BF09B10B604A60D1
:1017800030BD0000880100202DE9F04105460E46DD
:1017900017462C46FFF71AFF94F94400401C10B975
:1017A000002084F8440094F94500401C10B9002042
:1017B00084F84500FFF734FFA06B28B93A4631465C
:1017C00004F1240000F062F82046FFF706FDBDE8B2
:1017D000F081000070B504460025D4B112480068BD
:1017E00008B9012000E0002050B900BF502080F36C
:1017F0001188BFF34F8FBFF36F8F00BF00BFFEE7AD
:1018000000F0A6F900212046FFF768F800F0F4FD8B
:1018100005463DB94FF0805004490860BFF34F8F33
:10182000BFF36F8F70BD00003801002004ED00E0B1
:101830000349096801600349096841607047000075
:101840002401002010010020012001490860704798
:101850002001002070B504460D4654B900BF502049
:1018600080F31188BFF34F8FBFF36F8F00BF00BFAE
:10187000FEE70548016818312046FFF780FE012188
:101880002846FFF72BF870BDFC00002070B5044619
:101890000E46154654B900BF502080F31188BFF39F
:1018A0004F8FBFF36F8F00BF00BFFEE760680F4927
:1018B0000968C8610D49826809680A620B490968AC
:1018C00018318268516009490968183181600749F7
:1018D00009688C622168491C21600DB14FF0FF3608
:1018E00029463046FEF7FAFF70BD0000FC000020DC
:1018F00070B505462C4655B900BF502080F31188BD
:10190000BFF34F8FBFF36F8F00BF00BFFEE72548C7
:101910000068844245D0002C43D0FFF757FE204694
:10192000FFF722FCD8B3201DFFF705FE94F82C101A
:10193000012088401C49096808431B490860E16A86
:1019400001EB8101194A02EB81014868A0608268BD
:10195000E260211D826851608160E16A01EB8101D2
:10196000124A02EB81026261E16A01EB81010F4AD6
:1019700052F82110491CE26A02EB82020B4B43F839
:1019800022100849E06A0968C96A884207D34FF003
:10199000805007490860BFF34F8FBFF36F8FFFF789
:1019A0003FFE70BDFC00002014010020C801002093
:1019B00004ED00E01CB51E4800210B468222CDE953
:1019C00000101CA11D4800F063FB0446012C02D14D
:1019D00000F0CEFD0446012C15D100BF502080F34D
:1019E0001188BFF34F8FBFF36F8F00BF4FF0FF30F1
:1019F000134908600120134908600020124908605B
:101A000000F0F4F810E0601C08B1012000E00020B4
:101A100050B900BF502080F31188BFF34F8FBFF340
:101A20006F8F00BF00BFFEE7084800681CBD0000C4
:101A30003001002049444C4500000000150C00080E
:101A40002C0100201801002010010020340100208A
:101A500070B50546FFF7BAFD15B93548006800E0D6
:101A600028460446201DFFF766FD78B9E06A00EBC2
:101A70008000304951F8200040B994F82C10012022
:101A800088402D49096881432B480160A06A18B13C
:101A900004F11800FFF74FFD211D2848FFF789FDCD
:101AA000002009E004F15401095C012903D100225E
:101AB00004F154010A54401C0128F3DBFFF7B0FD88
:101AC0001F48006828B1FFF781FDFFF7DDFAFFF737
:101AD000A7FD17480068844229D119480068D0B191
:101AE0001848006808B9012000E0002050B900BF84
:101AF000502080F31188BFF34F8FBFF36F8F00BF6B
:101B000000BFFEE74FF080500F490860BFF34F8FD2
:101B1000BFF36F8F0BE0094800680C4909688842E1
:101B200003D100200249086001E000F019F870BDFF
:101B3000FC000020C8010020140100207C020020CD
:101B4000180100203801002004ED00E00C01002005
:101B500002480068401C01490860704738010020B5
:101B60001D48006818B101201C49086032E00020BF
:101B70001A4908601A480068B0FA80F0C0F11F01E5
:101B800001EB8100174A52F8200008B1012000E063
:101B9000002050B900BF502080F31188BFF34F8F51
:101BA000BFF36F8F00BF00BFFEE701EB81020D4B5B
:101BB00003EB820042685268426000F10802436809
:101BC000934202D14268526842604268D268064B32
:101BD0001A6000BF7047000038010020200100207B
:101BE00014010020C8010020FC0000201CB5524850
:101BF00000685249884201D0012000E0002050B91D
:101C000000BF502080F31188BFF34F8FBFF36F8F59
:101C100000BF00BFFEE7484800684849491E8842A7
:101C200001D0012000E0002050B900BF502080F317
:101C30001188BFF34F8FBFF36F8F00BF00BFFEE768
:101C40003F49084600780190FF200A461070084678
:101C5000007800909DF8000000F0F0009DF8002052
:101C6000904201D1012000E0002050B900BF502077
:101C700080F31188BFF34F8FBFF36F8F00BF00BF9A
:101C8000FEE79DF8000000F050002E4A107007207B
:101C90002D4A106009E02C480068401E2A4A106056
:101CA0009DF800004006000E00909DF8000000F036
:101CB00080008028EFD024480068C0F10700042885
:101CC00001D1012000E0002050B900BF502080F376
:101CD0001188BFF34F8FBFF36F8F00BF00BFFEE7C8
:101CE000194800680002184A10601046008800F485
:101CF000E0601060124A019810700F4820300068B0
:101D000040F470000C49203108600846006840F03B
:101D100070400860FFF7F4FC00200C490860FEF7F3
:101D200075FA0B48006840F0404009490860FEF72A
:101D300059FA00201CBD000000ED00E071C20F4107
:101D400000E400E054010020580100205001002070
:101D500034EF00E02DE9F84305460E46174600240F
:101D6000E5B1601EB0FBF5F0B04217D305FB06F0FD
:101D700010F1510F12D805FB06F808F15000FFF7DB
:101D80006BFA0446B4B1A14609F150093B464A46F4
:101D9000314628460094FEF751FF0BE054B900BFCE
:101DA000502080F31188BFF34F8FBFF36F8F00BFB8
:101DB00000BFFEE72046BDE8F88300002DE9F041B2
:101DC00005460E4601272C4654B900BF502080F32B
:101DD0001188BFF34F8FBFF36F8F00BF00BFFEE7C7
:101DE000002C42D0E06B00283FD04FF0FF31E06B79
:101DF000B1FBF0F0216C884237D3FFF7E7FBD4E961
:101E00000F12206801FB0200A0600020A063206880
:101E10006060E06B401E226C216800FB0211E160F3
:101E2000FF2084F8440084F845009EB9206908B971
:101E3000012000E00020A8B904F1100000F04CFAE5
:101E400080B14FF0805013490860BFF34F8FBFF34C
:101E50006F8F07E004F11000FFF781FB04F124000D
:101E6000FFF77DFBFFF7DCFB00E000270FB101204F
:101E700000E0002050B900BF502080F31188BFF36C
:101E80004F8FBFF36F8F00BF00BFFEE73846BDE83E
:101E9000F081000004ED00E02DE9F74183B0054634
:101EA0000E464FF000082C4654B900BF502080F376
:101EB0001188BFF34F8FBFF36F8F00BF00BFFEE7E6
:101EC0000EB9206C08B9012000E0002050B900BF15
:101ED000502080F31188BFF34F8FBFF36F8F00BF87
:101EE00000BFFEE700F004F908B9059808B9012021
:101EF00000E0002050B900BF502080F31188BFF3EC
:101F00004F8FBFF36F8F00BF00BFFEE700BFFFF72B
:101F10005DFBA76BF7B131462046FEF70BFE781E3E
:101F2000A063206908B9012000E0002060B904F135
:101F3000100000F0D1F938B14FF080502F490860FF
:101F4000BFF34F8FBFF36F8FFFF76AFB012006B01F
:101F5000BDE8F081059818B9FFF762FB0020F6E7AD
:101F6000B8F1000F04D101A8FFF762FC4FF001089F
:101F7000FFF756FBFFF7ECFDFFF728FB94F9440051
:101F8000401C10B9002084F8440094F94500401C1E
:101F900010B9002084F84500FFF742FB05A901A80D
:101FA00000F02EF8F0B92046FEF762FFA0B104F170
:101FB00024000599FFF74EFC2046FFF70EF900F0CC
:101FC0001BFA0028A3D14FF080500C490860BFF3E2
:101FD0004F8FBFF36F8F9AE72046FFF7FEF800F0B0
:101FE0000BFA94E72046FFF7F8F800F005FA2046D0
:101FF000FEF73EFF00288AD00020A8E704ED00E0AD
:1020000070B505460C4655B900BF502080F31188C5
:10201000BFF34F8FBFF36F8F00BF00BFFEE754B910
:1020200000BF502080F31188BFF34F8FBFF36F8F35
:1020300000BF00BFFEE7FFF7C9FA134802686868EF
:10204000131A2068401C08B9002619E00F492868B7
:102050000968884206D06868904203D801260020AB
:1020600020600DE02068984207D92068C01A2060DF
:102070002846FFF7DDFB002602E000202060012655
:10208000FFF7CEFA304670BD100100202401002079
:102090002DE9FF4F85B0804689461746DDE912AB32
:1020A000B800FFF7D9F8064656B15820FFF7D4F824
:1020B00004460CB1266304E03046FFF7CFFA00E097
:1020C00000247CB10020CDE900ABCDE902403A46C6
:1020D00049464046089BFEF7C6FD2046FEF75EFCDB
:1020E000012501E04FF0FF35284609B0BDE8F08F2B
:1020F0000549096809B9012005E00449096809B9D9
:10210000022000E000207047180100203801002064
:102110000149086870470000100100202DE9F041D6
:102120004FF000086148006800287DD160480068D1
:10213000451C5F48056015BB5E480068006808B92B
:10214000012000E0002050B900BF502080F311882A
:10215000BFF34F8FBFF36F8F00BF00BFFEE755483F
:10216000076855480068534908605348076053485A
:102170000068401C51490860FEF786FF00BF5048C8
:102180000068854277D300BF4A480068006808B9F4
:10219000012000E0002020B14FF0FF3048490860E6
:1021A00068E044480068C068C4686668B54202D206
:1021B000434806605EE06069D4E902128A60D4E9AF
:1021C00002214A60211D42688A4201D1E1684160D2
:1021D000002262610168491E0160A06A98B1A06A8C
:1021E000D4E907128A60D4E907214A6004F1180192
:1021F00042688A4201D1216A41600022A2620168DC
:10220000491E016000BF94F82C10012088402D4920
:10221000096808432B490860E16A01EB81012A4AF9
:1022200002EB8101486800E037E0A0608268E2606C
:10223000211D826851608160E16A01EB8101224ABF
:1022400002EB81026261E16A01EB81011E4A52F8F0
:102250002110491CE26A02EB82021B4B43F8221058
:102260001A49E06A0968C96A88428DD34FF00108AB
:102270008AE700E000BF15480068C06A00EB8000F4
:10228000114951F82000012801D94FF001081048E8
:10229000006808B14FF0010804E00E480068401CD7
:1022A0000C4908604046BDE8F0810000380100207C
:1022B0001001002000010020040100202401002062
:1022C0002C01002014010020C8010020FC00002087
:1022D000200100201C01002070B50346D868C168A9
:1022E00051B900BF502080F31188BFF34F8FBFF367
:1022F0006F8F00BF00BFFEE7886AD1E90745A56080
:10230000D1E90754656001F118044568A54201D17F
:102310000C6A446000258D620468641E04603048C5
:10232000006800283DD14869D1E90245A560D1E99E
:10233000025465600C1D4568A54201D1CC6844601B
:1023400000254D610468641E046091F82C40012052
:10235000A040244C24682043224C2060CC6A04EB2B
:102360008404214D05EB8404606888608568CD6035
:102370000C1D85686C608460CC6A04EB84041A4D83
:1023800005EB84054D61CC6A04EB8404164D55F8C9
:102390002440641CCD6A05EB8505134E46F82540A4
:1023A00010E0124C6068C86185680D6201F1180484
:1023B00085686C6084600D4D8D622C462468641CB9
:1023C0002C6000BF0A4CC86A2468E46AA04204D9A1
:1023D00001220120074C206000E00022104670BD61
:1023E0003801002014010020C80100205402002000
:1023F000FC0000202001002070B500240026534876
:10240000006850B900BF502080F31188BFF34F8F90
:10241000BFF36F8F00BF00BFFEE7FFF7D7F84B4851
:102420000068401E494908600846006800287DD1C0
:1024300047480068002879D05BE04648C068C46817
:10244000A06AD4E907128A60D4E907214A6004F13E
:10245000180142688A4201D1216A41600022A262C9
:102460000168491E01606069D4E902128A60D4E9FA
:1024700002214A60211D42688A4201D1E16841601F
:10248000002262610168491E016094F82C1001204D
:1024900088403149096808432F490860E16A01EB27
:1024A00081012E4A02EB81014868A0608268E260E7
:1024B000211D826851608160E16A01EB8101274A38
:1024C00002EB81026261E16A01EB8101234A52F869
:1024D0002110491CE26A02EB8202204B43F82210D1
:1024E0001F49E06A0968C96A884202D301201D4970
:1024F00008601848006808B9012000E000200028A2
:102500009BD00CB1FEF7C0FD1748056865B100BF50
:10251000FFF704FE10B10120124908606D1E002D66
:10252000F6D10020104908600E4800E009E000687C
:1025300038B1012630070D490860BFF34F8FBFF354
:102540006F8FFFF76DF8304670BD00003801002036
:102550000C0100205402002014010020C8010020BA
:10256000FC000020200100201C01002004ED00E000
:102570001CB50024FEF788FA0E48006858B10E48D2
:10258000022100234FF48272CDE900100BA10D4807
:10259000FFF77EFD044654B900BF502080F3118838
:1025A000BFF34F8FBFF36F8F00BF00BFFEE7204622
:1025B0001CBD00004401002048010020546D722021
:1025C00053766300C1110008E825000800000020D0
:1025D0007C01000014030008742600087C01002020
:1025E0003C3101003A050008C1420114C2EB0B1254
:1025F0000C1B0C01042E020C060C040220101111FD
:102600001012101310141005111E101F103B024061
:10261000045A04081A08041A18045A1004E920DAA3
:102620000C202202420419053974195211192A2961
:102630000D191B3918420819052910392C19096A76
:1026400080A4141001401A44321A48041A4C041A87
:1026500050041A14141A7808127C2540EBA5FF1AAE
:10266000FF0461D90F21023F07399001171AAA010F
:04267000012800003D
:04000005080001AD41
:00000001FF
