:020000040800F2
:100000004808002085020008390300083103000871
:10001000350300082B030008F90400080000000065
:10002000000000000000000000000000C501000802
:100030002F03000800000000210200083D03000813
:100040009F0200089F0200089F0200089F0200080C
:100050009F0200089F0200089F0200089F020008FC
:100060009F0200089F0200089F0200089F020008EC
:100070009F0200089F0200089F0200089F020008DC
:100080009F0200089F0200089F0200089F020008CC
:100090009F0200089F0200089F0200089F020008BC
:1000A0009F0200089F0200089F0200089F020008AC
:1000B0009F0200089F0200089F0200089F0200089C
:1000C0009F0200089F0200089F0200089F0200088C
:1000D0009F020008590400089F0200089F020008C0
:1000E0009F0200089F0200089F0200089F0200086C
:1000F0009F0200089F0200089F0200089F0200085C
:100100009F0200089F0200089F0200089F0200084B
:100110009F0200089F0200089F0200084504000893
:100120009F0200089F0200089F0200089F0200082B
:100130009F0200089F0200089F0200089F0200081B
:100140009F0200089F0200089F0200089F0200080B
:100150009F0200089F0200089F0200089F020008FB
:100160009F0200089F0200089F0200089F020008EB
:100170009F0200089F0200089F0200080000000084
:100180009F0200089F0200089F0200089F020008CB
:100190009F0200089F0200089F0200080000000064
:1001A0009F0200089F0200089F020008DFF810D09D
:1001B00000F07AF800480047E50B0008AFF3008034
:1001C000480800202C4B19680868B0E8F04F80F30D
:1001D0000988BFF36F8F4FF0000080F311887047DC
:1001E0000000000008480068006880F308884FF0AD
:1001F000000080F3148862B661B6BFF34F8FBFF37F
:100200006F8F00DF00BF00BF08ED00E0DFF80C00DB
:10021000016841F470010160704700BF88ED00E0A3
:10022000EFF30980BFF36F8F134B1A681EF0100FA6
:1002300008BF20ED108A20E9F04F106009B44FF09C
:10024000500080F31188BFF34F8FBFF36F8F01F021
:100250003DFC4FF0000080F3118809BC1968086864
:10026000B0E8F04F1EF0100F08BFB0EC108A80F31A
:100270000988BFF36F8F704734030020EFF30580C8
:10028000704700000648804706480047FEE7FEE743
:10029000FEE7FEE7FEE7FEE7FEE7FEE7FEE7FEE736
:1002A00071030008AD010008064C074D06E0E06848
:1002B00040F0010394E8070098471034AC42F6D3AD
:1002C000FFF778FF141D0008341D000870B58D1865
:1002D00010F8014B14F0030201D110F8012B231187
:1002E00006D110F8013B03E010F8016B01F8016B37
:1002F000521EF9D1ABB110F8012B04F00C048A1A8C
:100300000C2C03D0A2EB84129B1C08E010F8014BCC
:10031000A2EB0422F8E712F8014B01F8014B5B1E37
:10032000F9D5A942D4D3002070BD00BFFEE77047C5
:1003300000BFFEE700BFFEE77047000010B500BF3A
:10034000502080F31188BFF34F8FBFF36F8F00BF32
:1003500001F002FC18B14FF080500449086000BF62
:10036000002080F3118800BF10BD000004ED00E004
:1003700008B53048006840F470002E4908602E48E7
:10038000006840F001002C49086000BF2A4800685E
:1003900000F002000028F9D000BF274808300068AC
:1003A00040F080002449083108600020009002E0FD
:1003B0000098401C009000985028F9D31E4808303F
:1003C000006840F090001C4908310860002000904F
:1003D00002E00098401C009000985028F9D300BF1C
:1003E00015480830006820F0030013490831086000
:1003F00011480068114908400F4908600846006824
:1004000020F48020086000200B490831086000BFFC
:1004100009480830006800200028F9D1084806493A
:10042000091D0860002004490C31086000F0E0FF5D
:1004300008BD000088ED00E000380240FFFFF6FE36
:100440001030002410B500F095F80121014801F0AA
:1004500033F910BD0014004070B5224805684568A6
:100460000221214800F092F820480078AA2818D1EB
:100470001E48007A0D2814D11C48407A0A2810D151
:1004800000F096FE012000F0B5FE002404E00020FC
:1004900016490855601CC4B2092CF8DD0020144927
:1004A000087020220221104800F05FF90A22022180
:1004B0000D4800F035FA0D4B002202210A4800F0E9
:1004C00073F90221084800F071F8094800780A28F9
:1004D00002DB0020064908700649024801F01CFAB8
:1004E00070BD000000100140006402407403002051
:1004F000D60200200403040000BFFEE702E008C8A3
:10050000121F08C1002AFAD170477047002001E08D
:1005100001C1121F002AFBD17047000000201449BE
:10052000C8700920087108468078C97808441049C5
:10053000097908440E49497908440D4989790844E4
:100540000B49C97908440A49497A08440849097A93
:1005500008440749897A08440549C97A0844044986
:10056000097B08440249497B084401498873704764
:10057000840100200448006820B103480068401E40
:1005800001490860704700000000002010B501EB31
:100590004102D30000F11002D25822F0010301EB16
:1005A0004102D40000F11002135110BD10B501EB4F
:1005B0004102D30000F11002D25842F0010301EBD6
:1005C0004102D40000F11002135110BD30B51346A2
:1005D00001EB4104E50000F11004625922F0606271
:1005E00042EA436201EB4104E50000F1100462516C
:1005F00030BD10B501EB4102D30000F11002D2581A
:1006000022F4807301EB4102D40000F11002135177
:1006100010BD000000B589B040F6164000F080FD26
:100620000221164800F030F800200690144802908D
:10063000002003900A2007901248009001200190AA
:10064000002004904FF4403008906A4602210B4885
:1006500000F0BAF802210948FFF7CBFF042202217B
:100660000648FFF7B3FF10220221044800F05EF8AD
:1006700002210248FFF79AFF09B000BD0064024062
:10068000740300200410014010B501EB4102D300B7
:1006900000F11002D25822F0010301EB4102D40014
:1006A00000F110021351002301EB4102D40000F1CC
:1006B0001002135101EB4102D40000F11402135156
:1006C00001EB4102D40000F11802135101EB410289
:1006D000D40000F11C02135101EB4102D40000F1DF
:1006E0002002135101EB4102D40000F12402135106
:1006F00004290CDA01EB41025300C1F3400203EB81
:1007000082033D229A4083681A4382600DE00A1FEB
:10071000D1B201EB41025300C1F3400203EB82036B
:100720003D229A40C3681A43C26010BD30B5802A8A
:100730000DD001EB4103DC0000F110031B59934382
:1007400001EB4104E50000F1100463510CE001EB02
:100750004103DC0000F124031B59934301EB4104E6
:10076000E50000F12404635130BD10B504290CDA12
:1007700001EB41035C00C1F3400304EB830302FA85
:1007800003F38468234383600DE00B1FD9B201EBB0
:1007900041035C00C1F3400304EB830302FA03F35B
:1007A000C4682343C36010BD30B532B101EB4104CE
:1007B000E50000F12004635105E001EB4104E50090
:1007C00000F11C04635130BD70B501EB4104E5003C
:1007D00000F12404645924F0040501EB4104E6000F
:1007E00000F12404A55101EB4104E60000F11804D6
:1007F0001568A55101EB4104E60000F11C04956861
:10080000A55101EB4104E60000F11404D569A5519E
:1008100001EB4104E50000F1100463593F4C234013
:10082000146944EA8404156A2C4395692C432343D4
:1008300001EB4104E50000F110046351546874B900
:1008400001EB4104E50000F11004645944F4007523
:1008500001EB4104E60000F11004A5511FE05468CB
:10086000012C0ED101EB4104E50000F110046459A4
:1008700024F4007501EB4104E60000F11004A551D9
:100880000DE001EB4104E50000F11004645944F46B
:10089000004501EB4104E60000F11004A551D468C5
:1008A00074B901EB4104E50000F11004645944F40B
:1008B000806501EB4104E60000F11004A5510DE054
:1008C00001EB4104E50000F11004645924F4806553
:1008D00001EB4104E60000F11004A551546974B91C
:1008E00001EB4104E50000F11004645944F4807503
:1008F00001EB4104E60000F11004A5510DE001EB0D
:100900004104E50000F11004645924F4807501EB02
:100910004104E60000F11004A55170BD3F87FCFFC3
:1009200010B501EB4103DC0000F114031A5110BDB6
:1009300070B504460D461049086800F0BFFF0F4926
:10094000886900F05DFE9421204600F03DFC00BF68
:1009500001210B4800F05CFE0028F9D02946204612
:1009600000F032FC0121064800F04FFE0249086801
:1009700000F0B1FF70BD000064010020C001002044
:1009800000140040F0B503461C6A5D6A00200DE0CB
:100990000126864016403EB187000F26BE40B44374
:1009A000860001FA06F63443461CB0B20828EFD39D
:1009B000082011E00126864016405EB1A0F108062D
:1009C000B7000F26BE40B543A0F10806B60001FAF5
:1009D00006F63543461CB0B21028EBD31C625D62AC
:1009E000F0BD8162704781617047F0B504460D46E5
:1009F00016462168E268002019E0012787401F4061
:100A00009FB14FEA400C032707FA0CF7B9434700A0
:100A100005FA07F739434FEA400C032707FA0CF7AA
:100A2000BA43470006FA07F73A43471CB8B2102802
:100A3000E3D32160E260F0BDF0B50C461546012C11
:100A400003D146681E43466002E046689E43466006
:100A5000826800210DE001268E401E403EB14F000D
:100A60000326BE40B2434E0005FA06F632434E1C42
:100A7000B1B21029EFD38260F0BD000010B504467A
:100A800024B1012C07D0022C0FD109E02021084805
:100A9000FFF7A7FF0AE040210548FFF7A2FF05E0A6
:100AA00080210348FFF79DFF00E000BF00BF10BD9D
:100AB0000020024010B5044624B1012C08D0022CBD
:100AC00012D10BE04FF480710948FFF78AFF0CE068
:100AD0004FF400710648FFF784FF06E04FF4806191
:100AE0000348FFF77EFF00E000BF00BF10BD00001D
:100AF0000014024010B540F6084000F011FB40F62B
:100B0000054000F00DFB2023012211463348FFF77A
:100B10006CFF4023002201213048FFF766FF80234D
:100B2000002201212D48FFF760FF2023022200212F
:100B30002A48FFF781FF4023022200212748FFF7C0
:100B40007BFF8023022200212448FFF775FF20212C
:100B50002248FFF748FF40212048FFF744FF80214B
:100B60001E48FFF740FF4FF48073002201211C480C
:100B7000FFF73BFF4FF40073002201211848FFF7F5
:100B800034FF4FF48063002201211548FFF72DFF49
:100B90004FF48073022200211148FFF74DFF4FF4FC
:100BA0000073022200210E48FFF746FF4FF48063D6
:100BB000022200210A48FFF73FFF4FF480710848E6
:100BC000FFF711FF4FF400710548FFF70CFF4FF4DA
:100BD00080610348FFF707FF10BD000000200240BE
:100BE00000140240FFF786FF0120FFF747FF4FF494
:100BF000E131002000F0AEFE4021184800F063FE15
:100C00004FF4E131032000F0A5FE4FF4E131022062
:100C100000F0A0FE4FF4E131012000F09BFE4FF404
:100C2000E131042000F096FE4FF41651052000F04B
:100C300091FE00221146252000F05CF94FF441712D
:100C4000064800F05CFEFFF7E5FC062000F0D6FB4E
:100C50000020FFF72FFF00BFFEE70000001001405B
:100C600070B505460C4602200949C8710320087278
:100C70000E204872084684720020C87208734873B8
:100C8000FFF74CFC0F220249284600F00FFF70BD11
:100C90008401002070B504460D46164631462046B4
:100CA00000F06AF829462046FFF7DAFF204600F0F8
:100CB0007FF83146601C00F05FF82946601CFFF7A2
:100CC000CFFF601C00F074F83146A01C00F054F80F
:100CD0000DB9012000E000200146A01CFFF7C0FF75
:100CE000A01C00F065F83146E01C00F045F80DB995
:100CF000012000E000200146E01CFFF7B1FFE01CEE
:100D000000F056F870BD70B504460D4616463146E3
:100D1000204600F031F829462046FFF7A1FF204683
:100D200000F046F83146601C00F026F80DB90120AD
:100D300000E000200146601CFFF792FF601C00F0FD
:100D400037F83146A01C00F017F82946A01CFFF721
:100D500087FFA01C00F02CF83146E01C00F00CF8D6
:100D60000DB9012000E000200146E01CFFF778FFEC
:100D7000E01C00F01DF870BD70B505460C46022061
:100D80000A49C8710320087207204872002088723F
:100D90000846C472002008734873FFF7BFFB0F2298
:100DA0000249284600F082FE70BD00008401002048
:100DB00010B5044602200A49C871032008721220A7
:100DC0004872012088720020C87208734873FFF7C8
:100DD000A5FB0F220249204600F068FE10BD00006E
:100DE0008401002010B5044602200949C87103207F
:100DF00008721220487200208872C8720873487303
:100E0000FFF78CFB0F220249204600F04FFE10BD79
:100E10008401002010B504462046FFF7E3FF601C64
:100E2000FFF7E0FFA01CFFF7DDFFE01CFFF7DAFF94
:100E300010BD000070B505460C4602200949C87176
:100E4000032008720D204872084684720020C87280
:100E500008734873FFF762FB0F220249284600F02F
:100E600025FE70BD8401002070B504460D4629465C
:100E70002046FFF7DFFF2946601CFFF7DBFF29460E
:100E8000A01CFFF7D7FF2946E01CFFF7D3FF70BD7A
:100E900070B504460E46154629462046FFF76CFFFE
:100EA00031462046FFF7DCFE2046FFF781FF29464A
:100EB000601CFFF761FF3146601CFFF7D1FE601C2C
:100EC000FFF776FF2946A01CFFF756FF3146A01C0E
:100ED000FFF7C6FEA01CFFF76BFF2946E01CFFF7DB
:100EE0004BFF3146E01CFFF7BBFEE01CFFF760FF45
:100EF00070BD00002DE9F04103460D461646002462
:100F00000027A0462A48006800F4E060B0F5E06FD2
:100F100003D100BF4FF0040830E02548006800F41A
:100F2000E060B0F5C06F03D101274FF0030825E062
:100F30001F48006800F4E060B0F5A06F02D10227FE
:100F4000B8461BE01A48006800F4E060B0F5806F16
:100F500003D103274FF0010810E01548006800F4A2
:100F6000E060B0F5407F03D104274FF0000805E0B2
:100F70004FF4A06000F020F80227B846C7F1040043
:100F800005FA00F4C8F104010F20C84030400443C2
:100F900024010848C45403F01F010120884059115E
:100FA000890001F1E021C1F80001BDE8F0810000F5
:100FB0000CED00E000E400E002490143024A116048
:100FC000704700000000FA050CED00E009480068D9
:100FD000006808B9012000E0002020B14FF0FF3088
:100FE0000549086005E003480068C06800680249D8
:100FF0000860704738030020640300202DE9F04F9B
:101000008CB0064600200A903EA090E8004CC068D4
:10101000CDE905BECDF810A007900FF2EC0ADAE991
:10102000000ACDE9020A0FF2E00ADAE9000ACDE986
:10103000000A38480068C0F381000B900B9820B17B
:10104000012804D0022828D103E0334927E033499E
:1010500025E03048001F006800F03F072D48001FC2
:101060000068C0F3881C2B48001F0068C0F30140D3
:10107000401C4FEA40092748001F006800F4800820
:10108000B8F5800F01D1254B00E0234BB3FBF7F0FF
:1010900000FB0CF0B0FBF9F101E01F4900BF00BFFD
:1010A0001C480068C0F3031404A8055D21FA05F28A
:1010B00018480068C0F3822402A8055D22FA05F0F2
:1010C000099014480068C0F342341DF8045022FA15
:1010D00005F0089036B1012E06D0022E06D0032E60
:1010E0000AD106E00A9108E00A9206E009980A90FF
:1010F00003E008980A9000E000BF00BF0A980CB017
:10110000BDE8F08F000000000000000001020304B1
:1011100006070809083802400024F40040787D01E1
:10112000074A02EB9011D1F8001800F01F030122CA
:101130009A401143024B03EB9012C2F8001870471B
:1011400000300240074A02EB9011D1F8001800F07D
:101150001F0301229A409143024B03EB9012C2F805
:101160000018704700300240074A02EB9011D1F896
:10117000001800F01F0301229A401143024B03EBB9
:101180009012C2F800187047003002406FF0807172
:10119000884205D1054909680140044A116004E00C
:1011A000024909680143014A116070478C380240C6
:1011B00003484078034908700148807848707047B8
:1011C00074030020DC02002070B504460D4600BF09
:1011D000074951F82400072100F082FB0028F7D0CE
:1011E000034951F82400294600F0F6FA70BD0000CA
:1011F000A400002010B504463C480078102803D114
:1012000001203B49086035E038480078402803D188
:101210000220374908602DE034480078802803D147
:1012200004203349086025E030480078202803D1A5
:1012300003202F4908601DE02C484078102804D175
:101240008221201DFFF774FB14E0284840782028F5
:1012500004D18421201DFFF76BFB0BE0234840786D
:10126000402804D18121201DFFF762FB02E0072006
:101270001F49086001212046FFF7F6FD1C48006861
:10128000072802D12046FFF7C5FD19480068072846
:1012900029D2DFE800F028040A1610221C00502290
:1012A00001212046FFF7F6FC1DE0502200212046D8
:1012B000FFF7F0FC17E0502200212046FFF7E8FD81
:1012C00011E0502201212046FFF7E2FD0BE0502201
:1012D00000212046FFF717FD05E05022012120469E
:1012E000FFF711FD00BF00BF10BD0000DC020020B1
:1012F000D8020020002000213A4A126842F48032CD
:10130000384B1A6000BF401C364A126802F40031A4
:1013100019B94FF6FF729042F5D1324A126802F4C1
:1013200000320AB900BFFEE72E4A4032126842F08E
:1013300080522C4B40331A602B4A126842F44042D0
:10134000294B1A60274A08321268264B08331A6064
:101350001A46126842F400421A601A46126842F4B1
:10136000A0521A60214A1B1F1A601A1F126842F00D
:1013700080721B1F1A6000BF1A4A126802F00072C6
:10138000002AF9D0184A126842F48032164B1A60CB
:1013900000BF154A526802F48032002AF9D0124A7E
:1013A000126842F40032104B1A6000BF0E4A5268B5
:1013B00002F40032002AF9D00A4A0832126822F0F8
:1013C0000302084B08331A601A46126842F0020200
:1013D0001A6000BF034A0832126802F00802002AAD
:1013E000F8D070470038024000700040196440098E
:1013F00010B5FFF77FFF10BDC16270471FB50446EF
:10140000684600F069F91B4951F8240000F036F8ED
:10141000194931F81400FFF783FE4FF08070FFF791
:10142000B5FEC720ADF800000020ADF80200ADF811
:1014300004004CF24F3002900020ADF806008DF809
:101440000C000C4951F82400694600F0E9F80949FC
:1014500051F824000021FFF7CFFF064951F824007E
:10146000012100F029F9034951F82400002100F07E
:1014700026F91FBDFC020020E002002010B5044642
:101480005C49601A8C426FD019DC5B49A4EB010007
:101490008C424ED009DCB4F1804F2ED05748204406
:1014A000A0B3B0F5806F72D13AE0B0F5806F49D04B
:1014B000B0F5006F4FD0B0F5406FF4D17BE0B0F5E0
:1014C000923F5BD009DCB0F5806F73D0B0F5644F0C
:1014D0000AD0B0F5684F5AD147E0B0F5943F57D0E5
:1014E000B0F5963F53D15CE04FF41060FFF73CFE3F
:1014F0004FF41060FFF726FE79E04FF40060FFF72D
:1015000033FE4FF40060FFF71DFE70E0FFE740F68A
:101510000100FFF729FE40F60100FFF713FE66E029
:1015200040F60200FFF720FE40F60200FFF70AFE39
:101530005DE040F60300FFF717FE40F60300FFF7FB
:1015400001FE54E040F60400FFF70EFE40F60400F2
:10155000FFF7F8FD4BE040F60500FFF705FE40F60B
:101560000500FFF7EFFD42E02EE040F60110FFF727
:10157000FBFD40F60110FFF7E5FD38E04FF4116088
:10158000FFF7F2FD4FF41160FFF7DCFD2FE02DE0D7
:1015900040F61110FFF7E8FD40F61110FFF7D2FDFD
:1015A00025E040F61210FFF7DFFD40F61210FFF7BE
:1015B000C9FD1CE011E040F60600FFF7D5FD40F63E
:1015C0000600FFF7BFFD12E040F60700FFF7CCFD75
:1015D00040F60700FFF7B6FD09E040F60800FFF708
:1015E000C3FD40F60800FFF7ADFD00E000BF00BFFF
:1015F00010BD0000001C0040000C004000FCFFBFBC
:10160000016841F0010101607047CA4302617047FF
:1016100002461069084008B1012070470020FCE72D
:101620000A8882621D4A90420ED0B0F1804F0BD0E2
:101630001B4A904208D01B4A904205D01A4A904259
:1016400002D01A4A90420BD1026822F07002026066
:1016500002684B881A43026002688B881A43026052
:101660008A68C262124A90420AD0124A904207D057
:10167000026822F4407202600268CB881A4302605A
:10168000064A904202D0094A904201D10A7B026385
:10169000426942F0010242617047000000000140CF
:1016A0000004004000080040000C0040000401401D
:1016B0000010004000140040CA430261704721B985
:1016C000026842F00802026005E0012903D10268C5
:1016D00022F0080202607047002101804180818071
:1016E0004FF6FF7181600021C180017370470000D7
:1016F0002DE9F04704460D460027B846B9460026B6
:101700003349601A8C4235D00CDC32482044E8B1B1
:10171000B0F5806F1FD0B0F5006F21D0B0F5406FED
:1017200032D122E0B0F5806F29D0B0F5184F03D048
:10173000B0F51C4F28D104E00320FFF75FFC0746FB
:1017400023E00320FFF75AFC07461EE00220FFF7C4
:1017500055FC074619E00220FFF750FC074614E04D
:101760000220FFF74BFC07460FE00220FFF746FC84
:1017700007460AE00220FFF741FC074605E0022089
:10178000FFF73CFC074600E000BF00BFE06800F444
:10179000004070B1780000EB5500B0FBF5F64FF655
:1017A000F07006EA0008C6F3420948EA0900A060A2
:1017B0000CE007EB5500B0FBF5F64FF6F07006EACB
:1017C000000806F00F0948EA0900A060BDE8F087AC
:1017D0000078004000BCFFBFC1F3080242607047C0
:1017E00010B504463349601A8C424DD00CDC3248A7
:1017F0002044E0B1B0F5806F22D0B0F5006F31D059
:10180000B0F5406F52D136E0B0F5806F45D0B0F5FD
:10181000184F03D0B0F51C4F48D11AE040F6041021
:10182000FFF7A2FC40F60410FFF78CFC3FE040F607
:101830001100FFF799FC40F61100FFF783FC36E03A
:1018400040F61200FFF790FC40F61200FFF77AFC1A
:101850002DE040F60510FFF787FC40F60510FFF776
:1018600071FC24E040F61300FFF77EFC40F6130005
:10187000FFF768FC1BE040F61400FFF775FC40F62C
:101880001400FFF75FFC12E040F61E00FFF76CFC4F
:1018900040F61E00FFF756FC09E040F61F00FFF778
:1018A00063FC40F61F00FFF74DFC00E000BF00BFE7
:1018B00010BD00000078004000BCFFBFC16821F4EB
:1018C0000051C16070470A460021416921F0400182
:1018D000114341617047C16841F40051C1607047D4
:1018E00010B5024602EB9110006801F01F040123BD
:1018F000A340184008B1012010BD0020FCE710B53E
:1019000000EB9112126801F01F040123A3401A4357
:1019100000EB91131A6010BD10B500EB91521268E4
:10192000C1F304440123A3409A4300EB91531A608E
:1019300010BD0A460021C16821F004011143C160B5
:1019400070470A460021C16821F008011143C160B7
:101950007047000070B504460D464D4931F814003B
:10196000FFF7DEFB042C03D140F60340FFF7D8FB62
:10197000484931F81400FFF7D3FB1CB1012C01D00A
:10198000022C1BD1444951F82420444951F8240029
:101990000721FEF7F7FF424951F82420414951F849
:1019A00024000721FEF7EEFF3D4951F824203D4970
:1019B00051F824000721FEF7E5FF24E0032C07D0AF
:1019C000042C05D0052C03D0062C01D0072C1AD1ED
:1019D000314951F82420314951F824000821FEF7FB
:1019E000D1FF2F4951F824202E4951F82400082115
:1019F000FEF7C8FF2A4951F824202A4951F824004B
:101A00000821FEF7BFFF244951F82430234951F83B
:101A1000240001220221FEF7E8FF1F4951F824307B
:101A20001E4951F8240002220021FFF705F81C4945
:101A300051F824301B4951F8240001220221FEF7FD
:101A4000D4FF174951F82430164951F824000222D6
:101A50000021FEF7F1FF144951F82400FFF7C0FE02
:101A6000114951F824002946FFF742FE0E4951F86A
:101A700024000421FFF75DFF0B4951F824000821E1
:101A8000FFF75FFF084951F82400FFF724FF70BDFE
:101A90000400002014000020640000202400002026
:101AA0008400002044000020A400002070B50646F9
:101AB0000C46154604E014F8011B3046FFF784FB82
:101AC000281EA5F10105F6D170BD00001D48006873
:101AD00018B101201C49086032E000201A49086052
:101AE0001A480068B0FA80F0C0F11F0101EB8100D4
:101AF000174A52F8200008B1012000E0002050B938
:101B000000BF502080F31188BFF34F8FBFF36F8F5A
:101B100000BF00BFFEE701EB81020D4B03EB82002B
:101B200042685268426000F108024368934202D161
:101B30004268526842604268D268064B1A6000BF31
:101B40007047000070030020580300204C03002061
:101B500080030020340300202DE9F0414FF00008FD
:101B60006148006800287DD160480068451C5F48D6
:101B7000056015BB5E480068006808B9012000E0F8
:101B8000002050B900BF502080F31188BFF34F8F61
:101B9000BFF36F8F00BF00BFFEE755480768554889
:101BA0000068534908605348076053480068401C68
:101BB00051490860FFF70AFA00BF504800688542A3
:101BC00077D300BF4A480068006808B9012000E0E8
:101BD000002020B14FF0FF304849086068E04448D9
:101BE0000068C068C4686668B54202D243480660AF
:101BF0005EE06069D4E902128A60D4E902214A6099
:101C0000211D42688A4201D1E1684160002262617F
:101C10000168491E0160A06A98B1A06AD4E9071260
:101C20008A60D4E907214A6004F1180142688A42B7
:101C300001D1216A41600022A2620168491E01604F
:101C400000BF94F82C10012088402D4909680843F2
:101C50002B490860E16A01EB81012A4A02EB81010C
:101C6000486800E037E0A0608268E260211D826879
:101C700051608160E16A01EB8101224A02EB81023D
:101C80006261E16A01EB81011E4A52F82110491C90
:101C9000E26A02EB82021B4B43F822101A49E06A07
:101CA0000968C96A88428DD34FF001088AE700E0CD
:101CB00000BF15480068C06A00EB8000114951F868
:101CC0002000012801D94FF001081048006808B130
:101CD0004FF0010804E00E480068401C0C49086001
:101CE0004046BDE8F081000070030020480300205A
:101CF000380300203C0300205C0300206403002024
:101D00004C030020800300203403002058030020EF
:101D100054030020341D000800000020740300005C
:101D2000CC0200080C1E000874030020D40400003C
:101D30000C05000822000110050C000C010420060F
:101D4000020C060C0402301411111012101310149E
:101D50001005111E101F100000024004520408124A
:101D60000804121804521004E120D20C20200502AD
:101D70000000046811052201701152120036210D75
:101D8000520218220888420810312C113463800056
:101D90003010050140004432124804124C04125025
:101DA0000C12141412780C127C0C01BDC05009EBFB
:101DB000A5FF0000FFFF0001D10F1700110024173D
:101DC000100210031004100510011110111111124E
:101DD0001106100710084816001C218E160408363C
:101DE000080C11D425202114153822407C152C1202
:101DF000480C161844161C4806DF20340723000739
:0C1E00003E05353C01350152043900005C
:04000005080001AD41
:00000001FF
